:100000000C9441040C9461040C9461040C946104FC
:100010000C9461040C9461040C9461040C946104CC
:100020000C9461040C9461040C94E51B0C94610421
:100030000C9461040C9461040C9461040C946104AC
:100040000C9461040C9461040C9461040C9461049C
:100050000C9461040C9461040C9461040C9461048C
:100060000C9461040C9461040C9461040C9461047C
:100070000C9461040C9461040C9461040C9461046C
:100080000C9461040C94A5210C946104084AD73B9C
:100090003BCE016E84BCBFFDC12F3D6C74319ABD57
:1000A00056833DDA3D00C77F11BED9E4BB4C3E917B
:1000B0006BAAAABE000000803F00000A0000110EDB
:1000C0000000000A0000111F0000000A00000E11CD
:1000D00000000E1F1111111F00000000000000158C
:1000E00000000E0E0E1F0E0400616E616C6F675FE4
:1000F00072656164006D6370333030382066616909
:100100006C006D637033303038206661696C006458
:1001100069676974616C5F777269746500646967A7
:100120006974616C5F72656164004A6F794F532036
:1001300076302E322E350A0052756E6E696E67204B
:10014000756D61696E28292E2E2E0A00576169741B
:10015000696E6720666F72205246207374617274F4
:100160002C206F7220707265737320476F20746F3C
:10017000207374617274206E6F772E0A0046696E68
:1001800069736865642075736574757028292E0A13
:100190000052756E6E696E67207573657475702890
:1001A000292E2E2E0A000A526F756E6420656E6429
:1001B00000736D617368206E756C6C206C6F636B7F
:1001C0000072656C6561736520756E68656C64208E
:1001D0006C6F636B0072656C65617365206E756C26
:1001E0006C206C6F636B0069735F68656C64206E74
:1001F000756C6C206C6F636B0061637175697265FF
:100200006420746F6F206D616E792074696D657301
:100210000061637175697265206E756C6C206C6F1E
:10022000636B00646561646C6F636B20696E206151
:10023000637175697265202D2D2063616C6C656436
:100240002066726F6D206B65726E656C20746872CB
:10025000656164206F6E20756E617661696C6162A4
:100260006C65206C6F636B006163717569726564A6
:1002700020746F6F206D616E792074696D657300F5
:1002800061637175697265206E756C6C206C6F634B
:100290006B00696E6974206E756C6C206C6F636B9B
:1002A00000426F61726420696E697420636F6D70C3
:1002B0006C6574652E0A0046504741207625642EF1
:1002C00025640A0046504741206661696C75726575
:1002D0000042617474657279204F4B0A004C6F774D
:1002E0002062617474657279005741524E494E47DD
:1002F0003A204C4F5720424154544552590A004D20
:100300006F746F7220426174746572793A2025644B
:100310006D560A004861707079626F617264207670
:1003200025582E253032580A00426F6172642049E8
:100330004420253034580A00486172647761726540
:100340002076657273696F6E2025582E25303258DD
:100350000A00426F61726420636F6E666967204FA6
:100360004B0A0042616420436F6E66696700486112
:10037000707079626F61726420696E697420737441
:1003800061727465640A005541525430206F706583
:100390006E65642061742025640A006D656D6F725E
:1003A000792066756C6C00686561702073697A6588
:1003B0003A2025752062797465730A005F5F6D616C
:1003C0006C6C6F635F686561705F656E64203D2073
:1003D00025700A005F5F6D616C6C6F635F686561BB
:1003E000705F7374617274203D2025700A00496E3D
:1003F0006974206661696C3A2025530A00666F7241
:100400006B000A70616E69633A2025530A002074FC
:100410006872656164202874696420256429202736
:100420002573272073746174757320256420727599
:100430006E732025750A0020746872656164202837
:100440007469642025642920756E616C6C6F63612A
:100450007465640A0044756D70696E672074687213
:10046000656164207374617465733A0A00205043B7
:100470002020203A20253038700A0020535245476A
:10048000203A20253032700A002053502020203A94
:1004900020253034700A002046502020203A2025A4
:1004A0003034700A00203C6F6D697474696E672087
:1004B00072302D7233313E0A0044756D70696E677B
:1004C000206A6D705F6275663A0A006F7574206FFE
:1004D000662074687265616473007363686564752F
:1004E0006C6564207468726561642074686174204E
:1004F00068616420616C72656164792065786974F3
:1005000065640065786974696E67206E6F746869E8
:100510006E6700737461636B206F766572666C6FD3
:1005200077007265736572766564207370616365C8
:100530003A20257020746F2025700A00737461635F
:100540006B746F703A2025700A007063206174200C
:1005500025700A007370206F6620272573272028D6
:100560006964202564292069732025700A000A73B4
:100570007461636B206F766572666C6F770A0053E7
:10058000502061626F766500286964202564292007
:10059000737461636B205B25702C2570290A0074CD
:1005A0006872656164207461626C6520656E6420A8
:1005B00061742025700A007468726561642074613A
:1005C000626C652073746172742061742025700AF6
:1005D00000756E6B6E6F776E20696E7465727275E2
:1005E00070740025203564202020253470202020C0
:1005F000253032780A003D3D3D3D3D3D3D3D3D3D90
:100600003D3D3D3D3D3D3D3D3D3D0A00494E44455E
:10061000582020204144445220202056414C55452A
:100620000A00547279696E6720746F20647269766B
:10063000652073747261696768740A005468652084
:1006400064697374616E63652069733A2025660A74
:100650000054686520746172676574206865616420
:10066000696E672069733A2025660A005765206322
:10067000616C63756C617465642074617267657424
:1006800048656164696E67210A004F757220637561
:100690007272656E742068656164696E6720697343
:1006A0003A2025660A0041626F757420746F2063DA
:1006B000616C63756C6174652064657369726564EF
:1006C00048656164696E670A00466163696E672008
:1006D0007468652072696768742064697265637400
:1006E000696F6E0A00547279696E6720746F2074A6
:1006F00075726E2072696768740A00547279696E47
:100700006720746F207475726E206C6566740A00C1
:100710005468652064656C746148656164696E67DE
:100720002069733A2025660A005570646174656417
:100730000A007570646174655F7069643A206E6F59
:1007400020696E707574007570646174655F70699E
:10075000643A207069642064697361626C65640046
:10076000696E69745F7069643A20706964206E759F
:100770006C6C006E616E00696E660000407A10F36A
:100780005A00A0724E18090010A5D4E80000E876BF
:1007900048170000E40B54020000CA9A3B00000016
:1007A000E1F505000080969800000040420F00002F
:1007B00000A08601000000102700000000E80300F0
:1007C0000000006400000000000A000000000001BA
:1007D00000000000002C76D888DC674F0823DFC1BA
:1007E000DFAE59E1B1B796E5E3E453C63AE6519975
:1007F0007696E8E6C28426EB898C9B62ED407C6F9E
:10080000FCEFBC9C9F40F2BAA56FA5F490055A2A54
:10081000F75C936B6CF9676DC11BFCE0E40D47FE60
:10082000F520E6B500D0ED902E0300943577050055
:1008300080841E080000204E0A000000C80C3333DC
:1008400033330F986E12831141EF8D2114893BE6EB
:100850005516CFFEE6DB18D1844B381BF77C1D9074
:100860001DA4BBE424203284725E228100C9F124DD
:10087000ECA1E53D276364696E6F70737578585B12
:10088000000011241FBECFEFD0E1DEBFCDBF11E0CD
:10089000A0E0B1E0E2E4F1E700E00BBF02C00790A6
:1008A0000D92A83DB107D9F71BBE14E0A8EDB1E049
:1008B00001C01D92A93CB107E1F70E945B140C94A2
:1008C0009F380C94CE1B4F925F926F927F928F92C3
:1008D0009F92AF92BF92CF92DF92EF92FF920F93CF
:1008E0001F93DF93CF93CDB7DEB728970FB6F89459
:1008F000DEBF0FBECDBF6B017C0100E010E0C80180
:10090000B7010E949C078F3FD1F3C69864E670E060
:1009100080E090E00E94931FC69A00E010E05E0124
:100920000894A11CB11C67E0462E512C51E0652EA5
:10093000712C49E0842E912C8C0E9D1E3CC00E948F
:100940002107482F0F5F1F4F807C803C19F0FF2448
:10095000F39408C03FE3F32EF4220E942107482FAE
:100960000F5F1F4F20E030E0F501E20FF31FC201DF
:10097000821B930BB30102C0660F771F8A95E2F7C3
:10098000CB01842380832F5F3F4F2830310561F7EF
:1009900090E00DC08081882311F0C59A01C0C598F0
:1009A000C79AC7983196E815F905A1F79F5F9F157B
:1009B00010F4F501EFCF0C151D0508F4C0CF0E940F
:1009C000D3088091630090E023E0969587952A955F
:1009D000E1F7817028960FB6F894DEBF0FBECDBF49
:1009E000CF91DF911F910F91FF90EF90DF90CF900B
:1009F000BF90AF909F908F907F906F905F904F903F
:100A00000895CF92DF92EF92FF921F93DF93CF93DF
:100A100000D00F92CDB7DEB77C01162F6A010E947D
:100A20005B1E8F3F09F44BC0110F110F1064198327
:100A300082E090E060E00E94371E81E0E816F10459
:100A400059F0E1E0EE16F10428F0F2E0EF16F104BF
:100A500051F404C01A9807C0C09805C08091620084
:100A60008E7F80936200CE01019663E00E94431E58
:100A700081E0E816F10459F0E1E0EE16F10428F007
:100A8000F2E0EF16F10451F404C01A9A07C0C09ABC
:100A900005C0809162008160809362009A8180E04D
:100AA0002B8130E0822B932B26E0969587952A9513
:100AB000E1F7F601918380830E94511E80E00F9040
:100AC0000F900F90CF91DF911F91FF90EF90DF90EB
:100AD000CF900895FF920F931F93DF93CF93CDB7DD
:100AE000DEB7A1970FB6F894DEBF0FBECDBF082FBB
:100AF000F92E162F0E945B1E80EA89839E012E5FCD
:100B00003F4FC901602F7F2D412F50E00E9481305F
:100B100082E090E060E00E94371E1B981F5FCE01CC
:100B20000196612F0E94431E1B9A0E94511E8981CB
:100B3000A1960FB6F894DEBF0FBECDBFCF91DF9167
:100B40001F910F91FF900895DF93CF930F92CDB730
:100B5000DEB70E945B1E83EE898382E090E060E056
:100B60000E94371E1B98CE01019661E00E94431E31
:100B70001B9A0E94511E89810F90CF91DF91089599
:100B8000DF93CF930F92CDB7DEB70E945B1E82EE4C
:100B9000898382E090E060E00E94371E1B98CE01BE
:100BA000019661E00E94431E1B9A0E94511E89819A
:100BB0000F90CF91DF910895DF93CF930F92CDB730
:100BC000DEB70E945B1E81EE898382E090E060E0E8
:100BD0000E94371E1B98CE01019661E00E94431EC1
:100BE0001B9A0E94511E89810F90CF91DF91089529
:100BF000FF920F931F93DF93CF93CDB7DEB7A197EB
:100C00000FB6F894DEBF0FBECDBF082FF92E162FFA
:100C10000E945B1E81E6898382E090E060E00E9492
:100C2000371E1B98612F6F5FCE0101960E94431EF5
:100C30001B9A0E94511E9E012E5F3F4F802F9F2DB9
:100C4000B901412F50E00E9481308981A1960FB6F1
:100C5000F894DEBF0FBECDBFCF91DF911F910F91F2
:100C6000FF900895DF93CF9300D0CDB7DEB70E94F9
:100C70005B1E80E6898382E090E060E00E94371E80
:100C80001B98CE01019662E00E94431E1B9A0E94AF
:100C9000511E8A810F900F90CF91DF910895EF92AE
:100CA000FF920F931F93DF93CF9300D000D000D01B
:100CB000CDB7DEB7182FF62EE72E042F0E945B1E4D
:100CC000106219839E012E5F3F4FC9016F2D7E2D4B
:100CD000402F50E00E94813082E090E060E00E946E
:100CE000371E1B980F5FCE010196602F0E94431E96
:100CF0001B9A0E94511E898126960FB6F894DEBF7A
:100D00000FBECDBFCF91DF911F910F91FF90EF905C
:100D100008950F931F93DF93CF9300D0CDB7DEB725
:100D2000182F062F0E945B1E106219830A8382E02F
:100D300090E060E00E94371E1B98CE01019662E0B1
:100D40000E94431E1B9A0E94511E89810F900F9092
:100D5000CF91DF911F910F910895EF92FF920F9322
:100D60001F93DF93CF9300D000D000D0CDB7DEB774
:100D7000182FF62EE72E042F0E945B1E198382E0A7
:100D800090E060E00E94371E1B98602F6F5FCE01DD
:100D900001960E94431E1B9A0E94511E9E012E5FC7
:100DA0003F4F8F2D9E2DB901402F50E00E94813082
:100DB000898126960FB6F894DEBF0FBECDBFCF91C6
:100DC000DF911F910F91FF90EF9008951F93DF9394
:100DD000CF9300D0CDB7DEB7182F0E945B1E1983CA
:100DE00082E090E060E00E94371E1B98CE010196E1
:100DF00062E00E94431E1B9A0E94511E8A810F903E
:100E00000F90CF91DF911F910895DF93CF930F92B1
:100E1000CDB7DEB70E945B1E8FEF898382E090E042
:100E200060E00E94371E1B98CE01019661E00E948F
:100E3000431E1B9A0E94511E89810F90CF91DF9112
:100E40000895EF92FF921F93DF93CF9300D0CDB719
:100E5000DEB7CE01019661E00E94431E80914E02F2
:100E60008F3F69F410E082E0E82EF12CEC0EFD1EBD
:100E7000C70161E00E94431E1F5F1830C9F78091CF
:100E80004E028F5F80934E0289810F900F90CF9119
:100E9000DF911F91FF90EF900895EF92FF920F93D3
:100EA0001F93CF93DF937C018B01C0E0D0E007C09C
:100EB0000E942107F801EC0FFD1F80832196CE15BB
:100EC000DF05B0F380E0DF91CF911F910F91FF908C
:100ED000EF900895FF920F931F93DF93CF930F929C
:100EE000CDB7DEB787ED8983809162008B7F8093D9
:100EF00062008E010F5F1F4FC80161E00E94431E18
:100F0000F02E012F8F2D902F61E00E94431E8981CA
:100F100087FFF8CF8091620084608093620061E077
:100F200070E080E090E00E94931F0F90CF91DF91DE
:100F30001F910F91FF900895EF92FF920F931F93CF
:100F4000DF93CF9300D000D0CDB7DEB77B018C010B
:100F50000E945B1E8F3F69F181E090E060E00E949B
:100F6000371E88EE8983D801C7012FE0B695A79573
:100F7000979587952A95D1F78A83BB27A12F902F24
:100F80008F2D880F8B83E0924E02EC820E946A07BD
:100F9000809162008B7F809362008E010F5F1F4FF4
:100FA000C80164E00E94431EC80164E00E94431E21
:100FB00080E00F900F900F900F90CF91DF911F91D5
:100FC0000F91FF90EF900895AF92BF92CF92DF9272
:100FD000EF92FF920F931F93DF93CF9300D000D037
:100FE000CDB7DEB7162F5A0179010E945B1E8F3FE5
:100FF00019F42FEF3FEF44C081E090E060E00E94E1
:10100000371E84E889831A821B821C8380916200C8
:101010008B7F80936200CE01019664E00E94431EA4
:10102000612F70E0C701860F971F8150914028F013
:10103000E12C31E0F32EE61AF70A00E010E06E0131
:101040000894C11CD11C0BC0F501E00FF11F808179
:101050008983C60161E00E94431E0F5F1F4F0E157A
:101060001F0590F38091620084608093620061E0CC
:1010700070E080E090E00E94931F0E94511E970153
:10108000C9010F900F900F900F90CF91DF911F919A
:101090000F91FF90EF90DF90CF90BF90AF900895A9
:1010A000EF92FF920F931F93DF93CF9300D000D066
:1010B000CDB7DEB77B018C010E945B1E8F3F91F1A3
:1010C00081E090E060E00E94371E83E88983D801C8
:1010D000C7015FE0B695A795979587955A95D1F783
:1010E0008A83BB27A12F902F8F2D880F8B831C8283
:1010F0000E946A07809162008B7F80936200CE011C
:10110000019664E00E94431E809162008460809397
:10111000620061E070E080E090E00E94931F0E9416
:10112000511E80E00F900F900F900F90CF91DF91A4
:101130001F910F91FF90EF9008950F931F93DF93EE
:10114000CF9300D0CDB7DEB78C0187ED89831A82AB
:101150000E945B1E8F3F01F181E090E060E00E9401
:10116000371E809162008B7F80936200CE010196D2
:1011700062E00E94431E809162008460809362005E
:1011800061E070E080E090E00E94931F0E94511E99
:101190008A81F801808380E00F900F90CF91DF91DA
:1011A0001F910F910895E2E6F0E0808184608083D2
:1011B00061E070E080E090E00E94931F0E94511E69
:1011C0000895EF92FF920F931F93DF93CF9300D078
:1011D00000D0CDB7DEB77B018C010E945B1E8F3F34
:1011E00091F181E090E060E00E94371E83E5898301
:1011F000D801C7017FE0B695A795979587957A9511
:10120000D1F78A83BB27A12F902F8F2D880F8B8337
:101210001C820E946A07809162008B7F809362002B
:10122000CE01019664E00E94431E809162008460BA
:101230008093620061E070E080E090E00E94931F84
:101240000E94511E80E00F900F900F900F90CF9151
:10125000DF911F910F91FF90EF9008958091D80139
:101260000895CF92DF92EF92FF920F931F938C011C
:101270007B018FE4C82E82E0D82EC6010E946B1538
:1012800089E091E0B801A7010E94C130182F092F11
:10129000C6010E940E15812F902F1F910F91FF9074
:1012A000EF90DF90CF900895DF93CF93CDB7DEB767
:1012B000FE01359681919191BF010E943109CF9134
:1012C000DF910895CF92DF92EF92FF920F931F93D9
:1012D0008C017B019FE4C92E92E0D92EC6010E94A9
:1012E0006B1589E091E0B801A7010E94D22A182F5E
:1012F000092FC6010E940E15812F902F1F910F916B
:10130000FF90EF90DF90CF900895DF93CF93CDB70C
:10131000DEB7FE01359681919191BF010E9462096D
:10132000CF91DF9108950F931F93082F162F8FE40D
:1013300092E00E946B15912F92959F70002329F0E7
:10134000979A82B38370806C04C0979882B383703D
:101350008064990F990F982B92BB60E670E080E053
:1013600090E00E94931F60E670E080E090E00E94B1
:10137000931F60E670E080E090E00E94931F60E6BB
:1013800070E080E090E00E94931F60E670E080E0F3
:1013900090E00E94931F60E670E080E090E00E9481
:1013A000931F60E670E080E090E00E94931F60E68B
:1013B00070E080E090E00E94931F60E370E080E0C6
:1013C00090E00E94931F969860E670E080E090E0C5
:1013D0000E94931F60E670E080E090E00E94931FFF
:1013E00060E670E080E090E00E94931F60E670E0AD
:1013F00080E090E00E94931F60E670E080E090E063
:101400000E94931F60E670E080E090E00E94931FCE
:1014100060E670E080E090E00E94931F60E670E07C
:1014200080E090E00E94931F60E370E080E090E035
:101430000E94931F612F70E0002321F082B383701C
:10144000806C03C082B3837080646F707070660FAD
:10145000771F660F771F862B82BB60E670E080E007
:1014600090E00E94931F60E670E080E090E00E94B0
:10147000931F60E670E080E090E00E94931F60E6BA
:1014800070E080E090E00E94931F60E670E080E0F2
:1014900090E00E94931F60E670E080E090E00E9480
:1014A000931F60E670E080E090E00E94931F60E68A
:1014B00070E080E090E00E94931F60E370E080E0C5
:1014C00090E00E94931F969860E670E080E090E0C4
:1014D0000E94931F60E670E080E090E00E94931FFE
:1014E00060E670E080E090E00E94931F60E670E0AC
:1014F00080E090E00E94931F60E670E080E090E062
:101500000E94931F60E670E080E090E00E94931FCD
:1015100060E670E080E090E00E94931F60E670E07B
:1015200080E090E00E94931F60E370E080E090E034
:101530000E94931F8FE492E00E940E151F910F915D
:1015400008958FE492E00E946B1580E061E00E94B4
:10155000930980E062E00E949309E4E5F2E080E212
:10156000819392E0E437F907D9F71092D8011092ED
:10157000D9018FE492E00E940E1508951F93182F51
:101580008FE492E00E946B151093D8018091D901ED
:10159000181751F01093D901103108F0105D106840
:1015A00080E0612F0E9493098FE492E00E940E1563
:1015B0001F9108951F93182F8FE492E00E946B15DE
:1015C0008091DA01882321F00E94A10A1092DA01A9
:1015D0008091D801803211F41092D8011A3021F490
:1015E00081E08093DA0124C09091D801903119F400
:1015F0008FEF8093D901E92FF0E0EC5AFD4F808105
:10160000811789F010838091D901891719F0892FEA
:101610000E94BE0A81E0612F0E9493098091D90146
:101620008F5F8093D9018091D8018F5F8093D8011B
:101630008FE492E00E940E15212F332727FD30956D
:10164000C9011F9108950F931F93CF93DF938C01CE
:101650008FE492E00E946B15E8011AC06A3039F4F9
:1016600080E060E80E9493091092D80103C081E0F5
:101670000E9493099E01201B2F3021F480E060EC32
:101680000E9493098091D8018F5F8093D8012196A1
:101690006881662319F78FE492E00E940E15DF91AE
:1016A000CF911F910F910895EF92FF920F931F9387
:1016B000E82E162F072F8FE492E00E946B15EE0C98
:1016C000EE0CEE0C812F902FFC018F01FF246F2D6B
:1016D0006E0D606480E00E949309F801649181E0DE
:1016E0000E949309F3940F5F1F4FF8E0FF1679F7FC
:1016F0008FE492E00E940E151F910F91FF90EF90E2
:10170000089564E670E080E090E00E94B01F80E001
:1017100063E30E94930980E062E30E94930981E001
:1017200069EB70E00E94540B82E061EC70E00E9473
:10173000540B83E069EC70E00E94540B84E061ED8F
:1017400070E00E94540B85E069ED70E00E94540B3C
:1017500086E061EE70E00E94540B80E061E00E9440
:10176000930980E062E00E949309E4E5F2E080E200
:10177000819392E0E437F907D9F780E066E00E94B0
:10178000930980E06CE00E9493098FE492E060E0AE
:1017900071E00E945E1508950895CF92DF92EF9256
:1017A000FF920F931F93082F7B0180E090E8E82AB7
:1017B000F92A84E7C82E82E0D82EC6010E946B1554
:1017C000000F005E10E000501F4EF801E192F08221
:1017D000C6010E940E151F910F91FF90EF90DF90B0
:1017E000CF9008951F93182F80E090E00E94DF357E
:1017F00021E632EC44E85FE30E940F370E94AF35E8
:101800009B01AC012F5B3F4F812FB9010E94CD0B93
:101810001F910895EF92FF920F931F93082F94E763
:10182000E92E92E0F92EC7010E946B15000F005EB1
:1018300010E000501F4EF80111921082C7010E9463
:101840000E151F910F91FF90EF90089584E792E09D
:1018500067E171E00E945E1508951F93DF93CF93B7
:10186000CDB7DEB728970FB6F894DEBF0FBECDBF59
:10187000182F89E792E00E946B15DE011396EDE2C6
:10188000F1E086E001900D928150E1F7FE01E10F59
:10189000F11D638170E0685F7F4F80E090E0AE01F2
:1018A0004F5F5F4F0E94010589E792E00E940E158D
:1018B00089819A8128960FB6F894DEBF0FBECDBFFE
:1018C000CF91DF911F9108950E942D0CA0E0B0E010
:1018D000BC01CD010E94DF3528E431EE40E851E43F
:1018E0000E940F370E94AF35CB010895FF920F93EE
:1018F0001F93F82E09E712E0C8010E946B15FF0C38
:10190000EF2DF0E0E050FF4E83E08083C8010E949D
:101910000E151F910F91FF9008951F93CF93DF93A2
:10192000182FEB0189E792E00E946B15110F1C162E
:101930001D0634F4E12FF0E0E050FF4E81E007C0D7
:10194000E12FF0E0209729F0E050FF4E82E0808305
:1019500003C0E050FF4E1082E12FF0E0EF5FFE4E3B
:10196000BE01D7FF03C0709561957F4F608389E703
:1019700092E00E940E15DF91CF911F91089589E7A3
:1019800092E062E271E00E945E150895DF93CF93CA
:1019900000D0CDB7DEB7982F8850883090F403C0C0
:1019A00082E091E015C067E170E0691B710981E098
:1019B00090E0AE014F5F5F4F0E9401058823D9F090
:1019C000EFCF892F8051883028F012C085EF90E04A
:1019D0000E946D176FE170E0691B710982E090E071
:1019E000AE014F5F5F4F0E940105882321F0EECFCB
:1019F00089EE90E0EDCF89819A810F900F90CF9181
:101A0000DF9108950F931F93182F062F883020F031
:101A10008FE091E00E946D178EE792E00E946B15B7
:101A2000E12FF0E0EF5CFE4E008381E090E002C029
:101A3000880F991F1A95E2F72091DB01282B20933C
:101A4000DB01209330118EE792E00E940E151F916A
:101A50000F91089561116FEF0E94020D0895FF929A
:101A60000F931F930EE712E0C8010E946B15F090D0
:101A70001E11C8010E940E158F2D80951F910F9188
:101A8000FF9008951F93182F883028F58EE792E075
:101A90000E946B1581E090E0012E02C0880F991F13
:101AA0000A94E2F780952091DB0182238093DB0189
:101AB0008093301180911E1190E08095909502C026
:101AC000959587951A95E2F7182F11708EE792E099
:101AD0000E940E150EC0883140F40E94C60C10E022
:101AE0008150924030F011E004C08DE191E00E94FD
:101AF0006D17812F1F9108958EE792E063E371E0E7
:101B00000E945E150895CF92DF92EF92FF920F939D
:101B10001F93082F83E8C82E82E0D82EC6010E94AA
:101B20006B15000F045210E000501F4EF801E190B9
:101B30001081C6010E940E15912F80E0FF24E82A33
:101B4000F92AC7011F910F91FF90EF90DF90CF907E
:101B500008951F93182F0E94830DE12FF0E0EE0FE0
:101B6000FF1FE455FE4F20813181821B930B1F9193
:101B700008951F93182F0E94830DE12FF0E0EE0FC0
:101B8000FF1FE455FE4F918380831F91089583E8E2
:101B900092E060E471E00E945E15089581B1829543
:101BA0008695877080958170089581B182958F7038
:101BB000809581700895AF92BF92CF92DF92EF929D
:101BC000FF920F931F939B017C0100E010E040E027
:101BD00050E0CA01B901A80197010E94DA3728EE46
:101BE00033E040E050E00E942038C901DA015C0196
:101BF0006D0160E271EA87E090E0A80197010E9420
:101C00002038790100E010E00FC0C49AC801B70184
:101C10000E94931FC498C801B7010E94931F0894A3
:101C2000A108B108C108D108A114B104C104D104AC
:101C300061F71F910F91FF90EF90DF90CF90BF90D1
:101C4000AF9008950C99FECF64E670E080E090E0DC
:101C50000E94931F0C9BFECF08950D99FECF64E662
:101C600070E080E090E00E94931F0D9BFECF0895EE
:101C70001F930D9B02C00C99FCCF11B164E670E07C
:101C800080E090E00E94931F0D9BFECF0C9BFCCF49
:101C9000212F30E085E0369527958A95E1F720954C
:101CA000309521703070C9011F910895DF93CF9353
:101CB00000D0CDB7DEB780E090E06FE070E0AE011D
:101CC0004F5F5F4F0E94010569817A8180E090E05B
:101CD0000E94DF352CE135E441E251E40E940F37E8
:101CE0000E94AF35CB010F900F90CF91DF910895F7
:101CF000DF93CF9300D0CDB7DEB780E090E061E016
:101D000070E0AE014F5F5F4F0E94071E89819A818C
:101D10000F900F90CF91DF910895CF92DF92EF92C5
:101D2000FF920F931F93DF93CF9300D0CDB7DEB711
:101D30006C017B0180E090E061E070E0AE014F5FFC
:101D40005F4F0E94071EEC18FD080894E11CF11C6F
:101D500000E010E029813A8140E050E0C801B7017D
:101D60000E94DA372AE096958795779567952A95A8
:101D7000D1F7C60ED71EC6010F900F90CF91DF91FD
:101D80001F910F91FF90EF90DF90CF900895CF9229
:101D9000DF92EF92FF920F931F937B018C0188E8F3
:101DA000C82E82E0D82EC6010E946B15C801B7016B
:101DB0002091E4013091E5014091E6015091E70165
:101DC0000E940F370E9470352093E8013093E9019B
:101DD0004093EA015093EB016093EC017093ED01A5
:101DE0008093EE019093EF01C6010E940E151F91A2
:101DF0000F91FF90EF90DF90CF9008958F929F9278
:101E0000AF92BF92CF92DF92EF92FF920F931F9308
:101E100098E8892E92E0992EC4010E946B15A0903B
:101E2000E801B090E901C090EA01D090EB01E090A8
:101E3000EC01F090ED010091EE011091EF019501A0
:101E4000A601B701C8010E94DB352091E401309161
:101E5000E5014091E6015091E7010E9408357B01C0
:101E60008C01C4010E940E15B701C8011F910F918A
:101E7000FF90EF90DF90CF90BF90AF909F908F90AA
:101E800008952F923F924F925F926F92AF92BF92BE
:101E9000CF92DF92EF92FF920F931F93DF93CF9336
:101EA000CDB7DEB72B970FB6F894DEBF0FBECDBF10
:101EB0000E949417AC01CB01DA015C016D018091A5
:101EC0005C010E94C60C7C0100E010E08091F501ED
:101ED0009091F601A0E0B0E0E81AF90A0A0B1B0B9A
:101EE0000E949417688779878A879B878885998558
:101EF000AA85BB858A199B09AC09BD095C016D01E6
:101F0000C801B701A60195010E94DA377B018C0157
:101F10002091F7013091F80140E050E0C601B50191
:101F20000E94DA375B016C0188E892E00E946B1531
:101F30008091F0019091F101A091F201B091F30133
:101F40008A0D9B1DAC1DBD1D8093F0019093F10186
:101F5000A093F201B093F3018091F0019091F1010F
:101F6000A091F201B091F30189839A83AB83BC8382
:101F7000A0909702B0909802CC24DD246091F001EB
:101F80007091F1018091F2019091F301A601950108
:101F90000E9442389B01AC012093F0013093F10183
:101FA0004093F2015093F3015090E8013090E90121
:101FB0002090EA016090EB019091EC019D83A0914B
:101FC000ED01AE83B091EE01BF834090EF016981D6
:101FD0007A818B819C81A60195010E944238E21A88
:101FE000F30A040B150BD801C701BB0F880B982F00
:101FF000DC013F2DA801982FB82EA82EC82ED52C75
:10200000DE1821E05D1408F020E0E32CE31A31E053
:102010003E1408F030E0FE2DF21B21E0EF1608F030
:1020200020E0322BE22CE41A41E02E1408F040E0CC
:10203000EE2DE31B21E0EE1608F020E0422BE62C0B
:10204000E51A31E06E1408F030E07E2D741B21E0BB
:10205000E71608F020E0322B8D81891B41E09D813D
:10206000981708F040E0682F631B21E0861708F0FE
:1020700020E0422B8E818B1931E0AE81A81708F049
:1020800030E0582F541B21E0851708F020E0322B58
:102090008F818A1921E0BF81B81708F020E0482F0E
:1020A000431B31E0841708F030E0232B4C18421A10
:1020B000D092E801F093E901E093EA017093EB011B
:1020C0006093EC015093ED014093EE014092EF01DB
:1020D00088E892E00E940E150E94A31AA884B98491
:1020E000CA84DB84ECCE2F923F924F925F926F9224
:1020F0007F928F929F92AF92BF92CF92DF92EF9298
:10210000FF920F931F931801290180935C01409364
:10211000E4015093E5016093E6017093E7010E94AA
:10212000C8173B014C01AA24BB246501EE24FF24FF
:1021300087010FC080915C010E94C60CA0E0B0E056
:10214000E80EF91E0A1F1B1F0894A11CB11CC11C1C
:10215000D11C0E94C8176619770988099909621568
:1021600073058405950530F3C801B701A6019501F3
:102170000E9420383093F6012093F501C801B70181
:10218000A60195010E9420387093F8016093F70131
:10219000B0929802A09297021092E8011092E90181
:1021A0001092EA011092EB011092EC011092ED01F5
:1021B0001092EE011092EF0188E892E06DE471E078
:1021C0000E945E1581E49FE060E071E040E027E559
:1021D00031E00E947A191F910F91FF90EF90DF90EC
:1021E000CF90BF90AF909F908F907F906F905F90B7
:1021F0004F903F902F900895809185018E3119F472
:1022000080E090E00895E0918501F0E0E55EFC4F0C
:10221000808190E0882309F491E081E09827892F5C
:10222000089502C00E94A31A809185018E31D1F3D6
:10223000E0918501F0E0E55EFC4F8081882391F319
:1022400090918501E92FF0E0E55EFC4F80819F5F72
:102250009093850108950E941111282F332727FD9F
:102260003095C9010895EF92FF921F93CF93DF93AA
:102270007C01EB0187E00E94E60690E08E70907092
:1022800095958795182F873061F00E943206682F48
:102290008883813218F00E94C005ECCFC7010E94EC
:1022A000F805812FDF91CF911F91FF90EF90089556
:1022B0008EE393E00E946B15A9E9B2E0E7EBF2E050
:1022C0008EE101900D928150E1F78091430390914E
:1022D0004403A0914503B091460380933A03909341
:1022E0003B03A0933C03B0933D038EE393E00E9435
:1022F0000E1508950F931F93DF93CF93CDB7DEB7DD
:1023000027970FB6F894DEBF0FBECDBF8C01FC013E
:102310008081813009F47BC0813038F0823009F44B
:1023200089C0833009F0A4C098C0809186018F3F96
:1023300009F49EC090918601F80181858917D1F436
:10234000DE011196329687E001900D928150E1F7FF
:10235000D8011296F801399687E001900D928150CC
:10236000E1F7D8011996FE01319687E001900D92B0
:102370008150E1F7809187018F3F51F49091860160
:10238000F8018281891721F481818370809387010C
:10239000F8018181837090918701981709F068C0D6
:1023A0008EE393E00E946B15F80192818091860183
:1023B000981799F09A3A41F0D8011996329687E029
:1023C00001900D928150E1F7D8011296E7EBF2E00F
:1023D00087E001900D928150E1F7A7EBB2E0F801A0
:1023E00032968EE101900D928150E1F70E94941790
:1023F0009B01AC0120934303309344034093450376
:10240000509346038EE393E00E940E1531C08091F5
:1024100086018F3F69F1F80120E090918601828169
:10242000891719F40E94571423C02F5F31962E315B
:10243000A1F71EC0809186018F3FD1F0F80120E006
:10244000909186018281891719F40E94B01410C0FE
:102450002F5F31962E31A1F70BC010928501ABE1B1
:10246000B3E0F80132968EE101900D928150E1F7D0
:1024700027960FB6F894DEBF0FBECDBFCF91DF9188
:102480001F910F910895EF92FF920F931F93DF9387
:10249000CF93CDB7DEB7A1970FB6F894DEBF0FBECE
:1024A000CDBF8E010E5F1F4F7E010894E11CF11C11
:1024B0000E94050786FF10C087E060E40E9489063D
:1024C00004C0C80169810E947A11C801B7010E9445
:1024D0003311482F8730A9F70E94A31AE9CF0F9331
:1024E0001F9302E610E0F8018081877F808366E910
:1024F00070E080E090E00E94931F80E06DE30E9416
:10250000890681E060E00E94890686E067E00E941B
:10251000890681E160E20E94890680E06BE30E9407
:102520008906F80180818860808366E970E080E038
:1025300090E00E94931F1F910F9108958091FB01DD
:102540009091FC01892BD9F486EF92E06DE571E062
:102550000E945E158EE393E065E671E00E945E15D1
:10256000109239031092F5020E946F1283E492E1F7
:1025700060E071E040E024E731E00E947A190895BC
:10258000DF93CF9300D000D00F92CDB7DEB780910C
:102590006200877F8093620066E970E080E090E0EF
:1025A0000E94931F80E06CE70E94890681E060E052
:1025B0000E94890684E060E00E94890683E063E06F
:1025C0000E94890686E067E00E94890685E062E055
:1025D0000E948906DE011196E8E8F1E085E00190AD
:1025E0000D928150E1F780E1BE016F5F7F4F45E0C2
:1025F0000E944F0680E06AE70E9489060E94050754
:102600000F900F900F900F900F90CF91DF91089542
:10261000DF92EF92FF920F931F93182F7B01042FED
:102620000E94C0128AE00E94E606D82E8AE0612F3E
:102630000E94890680E1612F0E94890687E06EE78B
:102640000E948906C701602F0E946A05809162007E
:1026500088608093620064E170E080E090E00E9416
:10266000931F80916200877F8093620002C00E9466
:10267000A31A87E00E94E606682F082F10E0C80121
:1026800080739070892B99F3607387E00E948906AC
:102690008AE06D2D0E9489060E94DC050E946F125F
:1026A00035E0169507953A95E1F7802F81701F91D7
:1026B0000F91FF90EF90DF9008950F931F93082FD5
:1026C0001FB7F8948091F901E82FF0E0E550FD4F35
:1026D00002838F5F8093F9010A3011F08E3159F433
:1026E00083E08093FB0287EE6BEF72E040E20E9492
:1026F00008131092F9018FB71078182B1FBF202FE5
:10270000332727FD3095C9011F910F9108951F931D
:10271000182F8A3019F48DE00E945D13812F0E94DA
:102720005D131F910895CF92DF92EF92FF920F9366
:102730001F938C017B0146EFC42E42E0D42EC601CC
:102740000E946B1587E791E0B801A7010E94D23083
:10275000182F092FC6010E940E15812F902F1F914F
:102760000F91FF90EF90DF90CF900895DF93CF937C
:10277000CDB7DEB7FE01359681919191BF010E94E0
:102780009313CF91DF910895CF92DF92EF92FF9252
:102790000F931F938C017B0156EFC52E52E0D52E6F
:1027A000C6010E946B1587E791E0B801A7010E945E
:1027B000C532182F092FC6010E940E15812F902FA8
:1027C0001F910F91FF90EF90DF90CF900895DF93CE
:1027D000CF93CDB7DEB7FE01359681919191BF01C0
:1027E0000E94C413CF91DF910895CF92DF92EF92B0
:1027F000FF920F931F938C017B0166EFC62E62E060
:10280000D62EC6010E946B1587E791E0B801A7019B
:102810000E94C130182F092FC6010E940E15812F6A
:10282000902F1F910F91FF90EF90DF90CF90089520
:10283000DF93CF93CDB7DEB7FE01359681919191AD
:10284000BF010E94F513CF91DF910895CF92DF92DF
:10285000EF92FF920F931F938C017B0176EFC72EAF
:1028600072E0D72EC6010E946B1587E791E0B80190
:10287000A7010E94D22A182F092FC6010E940E1507
:10288000812F902F1F910F91FF90EF90DF90CF90AD
:102890000895DF93CF93CDB7DEB7FE0135968191D2
:1028A0009191BF010E942614CF91DF91089581E09C
:1028B0008093FA0108950E945A1600D08AE291E0AE
:1028C000EDB7FEB7928381830E94541F0F900F9043
:1028D0000E94E71987E794E160E071E040E02DE8AD
:1028E00031E00E947A190E949E120E94191B00D0AA
:1028F00081E991E0EDB7FEB7928381830E94541F76
:102900000F900F900E94362300D08DE791E0EDB735
:10291000FEB7928381830E94541F8CE491E0EDB74F
:10292000FEB7928381830E94541F0F900F9002C0C4
:102930000E94A31A8091FA01882321F40E94CE0DEF
:102940008823B1F300D088E391E0EDB7FEB792831E
:1029500081830E94541F0F900F900E94DB220895E4
:1029600000D086EA91E0EDB7FEB7928381830E94A2
:10297000541F0F900F900E949F1BFC014FB740788F
:10298000F8945081552349F0238134818091FB01D3
:102990009091FC012817390769F45F5F508380919B
:1029A000FB019091FC01948383838FB7482B4FBF29
:1029B00081E008958FB7482B4FBF80E00895FC0158
:1029C000009721F481EB91E00E946D178FB7F89486
:1029D0001082148213829FB78078892B8FBF08954D
:1029E000FC01009721F487EE91E00E946D17209181
:1029F000FB013091FC01838194812817390719F07C
:102A000020E030E009C090E08081882309F491E063
:102A100081E09827292F30E0C90108951F93CF93B3
:102A2000DF93EC01009719F485ED91E008C01FB722
:102A3000F8940E94F014892B21F481EC91E00E941B
:102A40006D17888181508883882311F41C821B8232
:102A50008FB71078182B1FBFDF91CF911F9108956A
:102A6000FC01009719F481E192E005C050815F3FBD
:102A700021F489EF91E00E946D174FB74078F894E8
:102A8000552349F0238134818091FB019091FC0111
:102A90002817390769F45F5F50838091FB0190919B
:102AA000FC01948383838FB7482B4FBF81E004C020
:102AB0008FB7482B4FBF80E090E00895FC0100974E
:102AC00021F482E992E00E946D1710827283618383
:102AD000148213820895CF93DF93EC01009719F4C9
:102AE00080E892E005C088818F3F51F488E692E04B
:102AF0000E946D170E94A31A03C083E292E0F8CFF0
:102B00002FB72078F8943881332349F04091FB01A6
:102B10005091FC018B819C818417950771F43F5F74
:102B200038838091FB019091FC019C838B838FB74C
:102B3000282B2FBFDF91CF9108958FB7282B2FBF60
:102B4000452BC1F6DACF20E030E83093D401209352
:102B5000D3018FEF9FEF9093D6018093D50100D0E2
:102B600000D084ED93E0EDB7FEB792838183348388
:102B700023830E94541F8CEB93E0EDB7FEB7928342
:102B800081838091D5019091D601948383830E94A3
:102B9000541F87EA93E0EDB7FEB79283818380915B
:102BA000D5019091D6012091D3013091D401821B9F
:102BB000930B948383830E94541F0F900F900F9068
:102BC0000F902091D3013091D4018091D501909143
:102BD000D6012817390720F08BE993E00E946D1782
:102BE0000895CF93DF9300D000D02EEE33E0EDB701
:102BF000FEB732832183948383830E94541FC0E0F5
:102C0000D0E00F900F900F900F900FC01E9A64E6C7
:102C100070E080E090E00E946D1B1E9866E970E015
:102C200080E090E00E946D1B2196C230D10574F3C4
:102C300060E273E080E090E00E946D1BC0E0D0E0B5
:102C4000F4CF60E070E080E090E00E949C078AE0B2
:102C500090E06DE872E00E944D070E94D308EDE815
:102C6000F2E020E030E081913827032E0294802D9D
:102C70008F708327932F9025990F907E8927902D11
:102C80009327907F9695032E000C991F36953695C5
:102C900036953F7139273227282F82E0E539F8072A
:102CA00011F740E0808191812817390709F441E04C
:102CB000842F08950F931F930E94D91D80E09BE4F9
:102CC0000E94A51E0DEB11E01093C8040093C704E9
:102CD00000D000D087E893E0ADB7BEB712969C93C2
:102CE0008E93119780E09BE414969C938E93139798
:102CF0000E94541F0F900F908EE693E0EDB7FEB741
:102D0000928381830E94541F0F900F900E947C0D2C
:102D10000E94C70D0E94611E0E94BF0C0E94260CDB
:102D20001093C6040093C5041093C4040093C30415
:102D30000E94301E0E94CD1B0E94A3150E942116E6
:102D4000882321F483E693E00E94F11500D082E508
:102D500093E0ADB7BEB712969C938E9311970E94E5
:102D6000541F20918D0230918E0200D000D0EDB71B
:102D7000FEB7319688E393E0ADB7BEB712969C9349
:102D80008E931197328313823070358324830E948F
:102D9000541F0F900F9089E293E0EDB7FEB7928336
:102DA000818380918F0290919002948383830E940B
:102DB000541F20918D0230918E0200D0EDB7FEB7E6
:102DC000319684E193E0ADB7BEB712969C938E9393
:102DD0001197328313823070358324830E94541FED
:102DE000EDB7FEB736960FB6F894FEBF0FBEEDBF37
:102DF0000E94560E00D000D02FEF32E0ADB7BEB724
:102E000012963C932E93119714969C938E9313973E
:102E10000E94541F0F900F900F900F900E94560E1B
:102E200080529C4188F40E94CE0D882341F000D04E
:102E300089EE92E0EDB7FEB7928381830EC08DEDEF
:102E400092E00E94F1150DC000D081ED92E0ADB787
:102E5000BEB712969C938E9311970E94541F0F90A9
:102E60000F90609193027091940280E091E00E9433
:102E70006304882321F484EC92E00E94F1152091F0
:102E8000FE113091FF1100D000D000D0EDB7FEB799
:102E9000319687EB92E0ADB7BEB712969C938E93B6
:102EA000119722831382348315820E94541F0F903E
:102EB0000F900F900F9081EA92E0EDB7FEB79283EA
:102EC00081830E94541F1E980F900F901F910F91A5
:102ED00008958DEF93E00E946D17EC01F8948CE952
:102EE00094E00E94DF14209711F4C2E9D1E000D0F1
:102EF00000D082E094E0EDB7FEB792838183D48363
:102F0000C3830E94541F0F900F900F900F900E9448
:102F10009F1B83E085BD83E884BD86B7806486BF40
:102F200087B7806487BF0895EF92FF920F931F9336
:102F30002FB7F8946091FD017091FE018091FF011F
:102F40009091000244B53FB72078232B2FBF242F48
:102F500030E02358304079010027F7FC0095102F0E
:102F60002DE730E040E050E00E94DA37E60EF71E31
:102F7000081F191F83E0EE0CFF1C001F111F8A950C
:102F8000D1F7B701C8011F910F91FF90EF900895FD
:102F90008FB7F8942091FD013091FE014091FF011F
:102FA000509100029FB78078892B8FBFB901CA0169
:102FB000089570E084ED9EEF689F9001699F300D49
:102FC000789F300D11242954304FC90108950F9373
:102FD0001F938C0100D089EB94E0EDB7FEB792838C
:102FE00081830E94541F85EA94E0EDB7FEB7928377
:102FF00081830E94541F00D000D087E994E0EDB790
:10300000FEB792838183F80180899189A0E0B0E0C6
:10301000EDB7FEB783839483A583B6830E94541FC4
:1030200089E894E0EDB7FEB792838183F801828945
:103030009389A0E0B0E0EDB7FEB783839483A583C6
:10304000B6830E94541F8BE794E0EDB7FEB79283DE
:103050008183F801848990E0A0E0B0E0EDB7FEB78D
:1030600083839483A583B6830E94541F8DE694E0E6
:10307000EDB7FEB792838183F80185899689A0E038
:10308000B0E0EDB7FEB783839483A583B6830E9437
:10309000541F8DB79EB706960FB6F8949EBF0FBE0D
:1030A0008DBF1F910F910895AF92BF92CF92DF9283
:1030B000FF920F931F93CF93DF938CE994E00E94CC
:1030C0006B15FFB6F89400D085E594E0ADB7BEB7B8
:1030D00012969C938E9311970E94541F03E613E05F
:1030E000C0E0D0E00F900F902EE0A22E24E0B22E90
:1030F00097E3C92E94E0D92EF8012081222399F478
:1031000000D000D0ADB7BEB71296DC92CE92119728
:103110001496DC93CE9313970E94541F0F900F9038
:103120000F900F902EC0EDB7FEB73C970FB6F894F6
:10313000FEBF0FBEEDBF3196ADB7BEB71296BC92C3
:10314000AE921197D383C283D8011C968D919C9126
:103150001D97958384832683178212962D913D9126
:103160004D915C91159720873187428753870E9444
:10317000541FEDB7FEB73C960FB6F894FEBF0FBED6
:10318000EDBF2196045D1F4FC730D10509F0B4CFC4
:103190008FB7F0E8FF22F82AFFBE8CE994E00E9486
:1031A0000E15DF91CF911F910F91FF90DF90CF907F
:1031B000BF90AF900895CF93DF93EC014A895B896C
:1031C0008B8D90E024ED3EEFBC01629FC001639FB8
:1031D000900D729F900D11248954904F841795077C
:1031E00018F48FE795E081C08F89988D841B950B2B
:1031F000298D3A8D2817390708F079C08CE994E0B9
:103200000E94DF1400D08EE695E0ADB7BEB71296EF
:103210009C938E9311970E94541F00D000D000D031
:10322000EDB7FEB7319684E595E0ADB7BEB712961F
:103230009C938E93119788A599A5938382838B8DF8
:10324000848315828A899B89978386830E94541F71
:10325000EDB7FEB738960FB6F894FEBF0FBEEDBFC0
:10326000CE010E94E71700D000D08AE495E0ADB708
:10327000BEB712969C938E9311978D899E89149652
:103280009C938E9313970E94541F8CE395E0EDB7A7
:10329000FEB7928381838F89988D948383830E9464
:1032A000541F4F89588D00D0EDB7FEB7319682E29A
:1032B00095E0ADB7BEB712969C938E931197CA0155
:1032C0000196298D3A8D821B930B938382835583BC
:1032D00044830E94541FEDB7FEB736960FB6F8949C
:1032E000FEBF0FBEEDBF83E195E00E946D17DF9139
:1032F000CF910895DF93CF9300D00F92CDB7DEB773
:10330000AC016FB76B83F894E3E6F3E01A8219829D
:103310008081882361F089819A8101969A838983CB
:10332000BC960797A9F78BEC94E00E946D178CE28E
:1033300090E0A981BA81A89FF001A99FF00DB89FE4
:10334000F00D1124E95BFC4F81E0848F31A720A7A9
:10335000168E178E10A211A28CE291E0928F818FAF
:1033600053A742A7CF010E9435308CE290E0E9815B
:10337000FA81E89FB001E99F700DF89F700D11244C
:10338000695B7C4F2E2F30E084ED9EEFAC01249FD3
:10339000C001259F900D349F900D11248954904FAA
:1033A000DB0153969C938E93529782EF9AE1569647
:1033B0009C938E9355979FB78B818078892B8FBF75
:1033C00089810F900F900F90CF91DF9108958F9288
:1033D0009F92AF92BF92CF92DF92EF92FF920F93A4
:1033E0001F93DF93CF930F92CDB7DEB72FB729830B
:1033F000F89400D000D087EB95E0ADB7BEB7129639
:103400009C938E93119707E413E014961C930E93EC
:1034100013970E94541F8FE995E0EDB7FEB7928392
:1034200081838BE794E0948383830E94541F095E19
:103430001F4F8824992457EBE52E5FE0F52E0F905F
:103440000F900F900F9048E8A42E45E0B42E3CE278
:10345000C32E31E0D32ED80114968C921497159672
:103460001C921597ED92FC92F80117821086118636
:1034700012862DB73EB7285030400FB6F8943EBFA5
:103480000FBE2DBFEDB7FEB73196ADB7BEB71296E2
:10349000BC92AE92119793828282F582E482C4013B
:1034A000809590959C012C9DC0012D9D900D3C9D7B
:1034B000900D11248954904F978386830E94541F46
:1034C0000894811C911C045D1F4F84ED9EEFE80E53
:1034D000F91EADB7BEB718960FB6F894BEBF0FBEB3
:1034E000ADBFB7E08B16910409F0B5CF8BE794E040
:1034F0000E9435308FEF90E190938E0480938D047D
:1035000089E19BE1909391048093900483E085BDD1
:1035100083E884BD86B7806486BF87B7806487BF31
:103520009FB789818078892B8FBF0F90CF91DF91D2
:103530001F910F91FF90EF90DF90CF90BF90AF90D1
:103540009F908F900895DF93CF930F92CDB7DEB702
:103550008FB78983F8941F920F922F933F934F93C5
:103560005F936F937F938F939F93AF93BF93EF93EB
:10357000FF938091FB019091FC01009721F00E9444
:103580003530892B31F48BE794E061E070E00E94E4
:103590005530FF91EF91BF91AF919F918F917F91A6
:1035A0006F915F914F913F912F910F901F909FB717
:1035B00089818078892B8FBF0F90CF91DF910895FB
:1035C0008FB7F894E091FB01F091FC01309719F46A
:1035D00083E095E005C0148E0E94A31A8AED94E062
:1035E0000E946D178FB780688FBFE091FB01F0914B
:1035F000FC0102A4F3A5E02D09950E94E01A909326
:10360000FC018093FB010E94DB18E091FB01F0912B
:10361000FC01868D978DA0A1B1A10196A11DB11DC0
:10362000868F978FA0A3B1A3CF0161E070E00E94C5
:103630005530E091FB01F091FC01309719F406E060
:1036400010E003C0838D082F10E01092FC0110924F
:10365000FB01C1E0D0E06CE2E62EF12CDD24D39436
:10366000CE01800F911F67E070E00E940D38BC0111
:103670008E9DF0018F9DF00D9E9DF00D1124E95B54
:10368000FC4F848D843091F42091FD013091FE0136
:103690004091FF015091000282A193A1A4A1B5A184
:1036A000281739074A075B0708F0D48E6E9DF00192
:1036B0006F9DF00D7E9DF00D1124E95BFC4F848D14
:1036C000813019F4CF010E94FF1A2196C830D1052C
:1036D00039F68FB780688FBFFFCF1F939B01AC0176
:1036E0000FB607FC03C00E94B01F1EC01FB7F8949E
:1036F000E091FB01F091FC0184E0848F8091FD0159
:103700009091FE01A091FF01B0910002820F931FE2
:10371000A41FB51F82A393A3A4A3B5A30E94A31AB9
:103720008FB71078182B1FBF1F9108950E9454184F
:1037300068EB7BE080E090E00E946D1BF7CFF8948F
:1037400089E792E00E94DF1484E792E00E94DF1490
:1037500010E0812F0E94760C812F0E940A0C1F5FBF
:103760001630B9F710E00FC01E9A64E670E080E0F2
:1037700090E00E946D1B1E9866E970E080E090E08A
:103780000E946D1B1F5F133078F360E273E080E0EE
:1037900090E00E946D1B10E0E7CF08951F920F92FA
:1037A0000FB60F920BB60F9211242F933F934F93A6
:1037B0005F936F937F938F939F93AF93BF93EF9399
:1037C000FF9381ED95E00E946D171F920F920FB647
:1037D0000F920BB60F9211242F933F934F935F9349
:1037E0006F937F938F939F93AF93BF93EF93FF93C9
:1037F00083E884BD8091FD019091FE01A091FF01BD
:10380000B09100020196A11DB11D8093FD0190931E
:10381000FE01A093FF01B09300020E94A31AFF9142
:10382000EF91BF91AF919F918F917F916F915F9138
:103830004F913F912F910F900BBE0F900FBE0F90A5
:103840001F901895CF92DF92EF92FF920F931F93E4
:10385000CF93DF93182F092FF62E00D08CE096E03F
:10386000ADB7BEB712969C938E9311970E94541FCA
:1038700086EF95E0EDB7FEB7928381830E94541FD7
:10388000212F302FC901EC0100E010E00F900F90C4
:10389000EF2CFF2483EEC82E85E0D82E24C08DB7F0
:1038A0009EB708970FB6F8949EBF0FBE8DBFEDB7B9
:1038B000FEB73196ADB7BEB71296DC92CE92119795
:1038C00013830283D583C4838991868317820E94E0
:1038D000541F0F5F1F4FEDB7FEB738960FB6F89421
:1038E000FEBF0FBEEDBF0E151F05CCF2DF91CF91CD
:1038F0001F910F91FF90EF90DF90CF9008959C0162
:10390000009781F000D000D083E991E0EDB7FEB7D9
:1039100092838183348323830E94851F0F900F90AD
:103920000F900F900E942D0E08950F931F93CF9329
:10393000DF93EC018C01085F1F4FC8010E946B15DB
:103940002C813D81688179812617370719F4C0E001
:10395000D0E00BC08E819F81860F971F0197821B3D
:10396000930B0E94F937EC012196C8010E940E15B5
:10397000CE01DF91CF911F910F9108954F925F92E9
:103980006F927F928F929F92AF92BF92CF92DF926F
:10399000EF92FF920F931F93CF93DF93EC017B0184
:1039A0003A0188E0482E512C4C0E5D1EC2010E9447
:1039B0006B15CE010E94951C4C015C0168167906BE
:1039C00008F45301A114B104E1F16C817D814881B7
:1039D0005981C501860F971F8417950710F465015B
:1039E0001CC08A01061B170BE114F10449F02A815F
:1039F0003B81260F371FC701B901A8010E94813002
:103A00006501C01AD10AE114F10411F0E00EF11EB3
:103A10001D821C82C114D104A1F0E114F10459F0FB
:103A20002A813B818C819D81280F391FC701B901F3
:103A3000A6010E9481308C819D818C0D9D1D9D83EE
:103A40008C838614970421F4888199819D838C83CB
:103A5000C2010E940E15C501DF91CF911F910F91F8
:103A6000FF90EF90DF90CF90BF90AF909F908F909E
:103A70007F906F905F904F9008958F929F92AF923A
:103A8000BF92CF92DF92EF92FF920F931F93CF934B
:103A9000DF93EC015B018A0198E0892E912C8C0E5A
:103AA0009D1EC4010E946B15CE010E94951CBC0195
:103AB000800F911F892B59F02C813D81888199813C
:103AC0002817390721F48E819F819D838C8348813B
:103AD00059817A01E61AF70A0E151F0508F47801D4
:103AE000E114F104D1F16E817F81C701860F971F28
:103AF0008417950710F467011CC08A01061B170B79
:103B0000A114B10449F02A813B81260F371FC90156
:103B1000B501A8010E9481306701C01AD10AA11421
:103B2000B10411F0A00EB11E1F821E82C114D10477
:103B3000A1F0A114B10459F02A813B818E819F81AB
:103B4000280F391FC901B501A6010E9481308E815D
:103B50009F818C0D9D1D9F838E83C4010E940E1535
:103B6000C701DF91CF911F910F91FF90EF90DF90F0
:103B7000CF90BF90AF909F908F9008950F931F9319
:103B80008C01CB01F801718360830E945B2EF801E8
:103B900082839383808191819583848317821682A7
:103BA000C801089667E971E00E945E151F910F91A8
:103BB000089585B7806885BFECE6F0E080818F7757
:103BC0008083EDE6F0E080818D7F808385B78F7BF9
:103BD00085BF87EF87BBC69A8CEF81BB8EE482B925
:103BE00083B1806383B98DE080936100109264009B
:103BF000E2E6F0E08081846080831A9AC09A808136
:103C0000816080831B9A8081877F808308950F93D2
:103C10001F93CF93DF93182F062FEA0182E994E0D8
:103C20000E946B15179511271795102B106417B963
:103C300087ED86B9349BFECF349A84B145B1342FD9
:103C400020E090E0282B392B3983288382E994E007
:103C50000E940E1580E0DF91CF911F910F91089582
:103C600082E994E061EA71E00E945E150895606562
:103C70009C0136952795622B6DB980FF02C0709A22
:103C8000089570980895FC0190E007C080818FB975
:103C9000779BFECF8FB181939F5F9617B8F380E03B
:103CA000089587E994E00E940E15089587E994E04D
:103CB0000E943015089587E994E00E946B1580E01A
:103CC000089587E994E06AEA71E00E945E1508951C
:103CD0001E9A5D9BFECF8CB91E98282F332727FD97
:103CE0003095C9010895282F8A3031F41E9A5D9BC2
:103CF000FECF8DE08CB91E981E9A5D9BFECF2CB92D
:103D00001E98332727FD3095C9010895FC0106C090
:103D10001E9A5D9BFECF31968CB91E9880818823B8
:103D2000B9F708951E9A5F9BFECF1E988CB1089537
:103D30001E9A5F9BFECF1E982CB1332727FD30952E
:103D4000C90108958BB1807808959C0140E050E04E
:103D500064E0220F331F441F551F6A95D1F760E0BE
:103D600072E18AE790E00E942038C901DA0121500F
:103D700029B90197A109B109892F9A2FAB2FBB2728
:103D8000809390001BB886E08093950088E18AB903
:103D90008CE994E063EB71E00E945E150895CF9288
:103DA000DF92EF92FF920F931F938C017B017CE9CE
:103DB000C72E74E0D72EC6010E946B158DEB91E0E3
:103DC000B801A7010E94D230182F092FC6010E9406
:103DD0000E15812F902F1F910F91FF90EF90DF9084
:103DE000CF900895DF93CF93CDB7DEB7FE01359620
:103DF00081919191BF010E94CF1ECF91DF910895D3
:103E0000CF92DF92EF92FF920F931F938C017B0171
:103E1000ECE9CE2EE4E0DE2EC6010E946B158DEBA0
:103E200091E0B801A7010E94C532182F092FC601E1
:103E30000E940E15812F902F1F910F91FF90EF90F0
:103E4000DF90CF900895DF93CF93CDB7DEB7FE011B
:103E5000359681919191BF010E94001FCF91DF9112
:103E60000895CF92DF92EF92FF920F931F938C01F0
:103E70007B01FCE9CF2EF4E0DF2EC6010E946B151A
:103E80008DEB91E0B801A7010E94C130182F092FD6
:103E9000C6010E940E15812F902F1F910F91FF9048
:103EA000EF90DF90CF900895DF93CF93CDB7DEB73B
:103EB000FE01359681919191BF010E94311FCF91F2
:103EC000DF910895CF92DF92EF92FF920F931F93AD
:103ED0008C017B01ACE9CA2EA4E0DA2EC6010E9457
:103EE0006B158DEB91E0B801A7010E94D22A182F23
:103EF000092FC6010E940E15812F902F1F910F913F
:103F0000FF90EF90DF90CF900895DF93CF93CDB7E0
:103F1000DEB7FE01359681919191BF010E94621F2B
:103F2000CF91DF91089530E007C0232F2A95F1F754
:103F30006056704080409040613671058105910562
:103F4000A0F720E032E14AE750E00E94DA3720ECA7
:103F500036EC4DE250E00E9420382A95F1F70895A2
:103F600020E03AEF07C0F9013197F1F76052704055
:103F7000804090406132710581059105A0F720E0F5
:103F800032E14AE750E00E94DA3720EA3FE040E0C1
:103F900050E00E942038C9010197F1F70895BC0153
:103FA000809171008E7F80937100809171008D7F70
:103FB0008093710080E49FE10E94F937603130F016
:103FC000862F90E0409795958795682F60937000B5
:103FD0000895A89AA99A909A919A109249021092DB
:103FE000480210924B0210924A0284E690E00E942E
:103FF000CF1FE4E7F0E080818460808310920202AA
:10400000109201028081816080838081806480833E
:104010007894089590E0611191E08E7F982B9093B1
:1040200072000895909349028093480208959093F6
:104030004B0280934A020895E4E7F0E080818F709C
:10404000806A80830895E4E7F0E080818F70806D5E
:10405000808308958091740087FFFCCF089580933A
:104060007300E4E7F0E080818F70806880830895BA
:10407000882329F0809174008F70806C04C0809137
:1040800074008F708068809374000895809173002D
:104090000895809171000895282F809101029091D8
:1040A0000202892BD1F782E090E090930202809384
:1040B00001022E7F20930302A4E0B2E0FA0102C0C5
:1040C00081918D938E2F841B8617D0F3109224023A
:1040D00060932502809174008F70806A80937400D1
:1040E0000895282F8091010290910202892BD1F727
:1040F00083E090E09093020280930102216020937C
:1041000003021092460260934702809174008F7000
:10411000806A809374008091010290910202892B41
:10412000D1F7A6E2B2E0FA0102C08D9181938E2F01
:10413000841B8617D0F30895982FFA01809174009C
:104140008E7F80937400809174008F70806A80935A
:1041500074008091740087FFFCCF9E7F9093730062
:10416000809174008F7080688093740080917400D7
:1041700087FFFCCF0FC08081809373008091740013
:104180008F708068809374008091740087FFFCCFEB
:1041900031966150662379F7809174008F70806D3D
:1041A000809374008091740084FFFCCF8091740030
:1041B0008160809374000895982FFA0180917400B3
:1041C0008E7F80937400809174008F70806A8093DA
:1041D00074008091740087FFFCCF9160909373000E
:1041E000809174008F708068809374008091740057
:1041F00087FFFCCF0EC0809174008F70806C80931D
:1042000074008091740087FFFCCF809173008193CC
:104210006150623080F7809174008F70806C809361
:1042200074008091740087FFFCCF809173008083BD
:10423000809174008F70806D809374008091740001
:1042400081608093740008950F931F93982FFA0153
:10425000809174008E7F80937400809174008F70C1
:10426000806A809374008091740087FFFCCF66237E
:10427000E9F0892F8E7F80937300809174008F7096
:104280008068809374008091740087FFFCCF8191D7
:1042900080937300809174008F70806880937400A5
:1042A0008091740087FFFCCF615089F72223D9F1F8
:1042B000809174008F70806A809374008091740084
:1042C00087FFFCCF916090937300809174008F7092
:1042D0008068809374008091740087FFFCCF922FD8
:1042E000F8010EC0809174008F70806C8093740010
:1042F0008091740087FFFCCF80917300819391506F
:10430000923080F72150F801E20FF11D8091740086
:104310008F70806C809374008091740087FFFCCF55
:10432000809173008083809174008F70806D809382
:1043300074008091740084FFFCCF809174008160D0
:10434000809374001F910F9108951F920F920FB6E2
:104350000F920BB60F9211242F933F934F935F93BD
:104360006F937F938F939F93AF93BF93EF93FF933D
:1043700080917100887F803609F4A0C0813670F585
:10438000883209F45FC0893298F4803109F457C04B
:10439000813138F4882309F4F1C0883009F0F8C07D
:1043A0004EC0883109F44EC0803209F0F1C0E6C039
:1043B000803409F477C0813438F4803309F4DEC0E6
:1043C000883309F0E5C05DC0803509F45FC08835E9
:1043D00009F44AC0883409F0DBC0D0C0883909F438
:1043E000C1C08939B0F4883709F468C0893738F416
:1043F000883609F463C0803709F0CAC05FC08838C6
:1044000009F4B0C0803909F462C0803809F0C0C036
:104410005EC0803B09F47DC0813B38F4803A09F4EA
:1044200065C0883A09F0B4C074C0803C09F4A1C0EA
:10443000883C09F49EC0883B09F0AAC07EC08091E8
:1044400003020FC09091240280912502981708F072
:1044500095C0E92FF0E0EC5FFD4F80819F5F909366
:104460002402809373007EC0809146029091730075
:10447000E82FF0E0EA5DFD4F90838F5F8093460266
:104480007DC0809174008F7080687CC080914602EE
:1044900090917300E82FF0E0EA5DFD4F90838F5F0D
:1044A000809346022091460230E08091470290E0DE
:1044B0000197281739070CF055C04FC085E090E0F0
:1044C00090930202809301021092460246C08091AE
:1044D000460290917300E82FF0E0EA5DFD4F908373
:1044E0008F5F809346028032E8F537C08091740078
:1044F0008F70806C80937400E0914802F0914902C3
:10450000309709F441C08091460266E272E0099555
:104510003BC084E090E09093020280930102E0911E
:104520004A02F0914B02309731F080E264E072E091
:104530000995809325021092240290912402E92F7C
:10454000F0E0EC5FFD4F8081809373009F5F90935C
:10455000240280912502981728F4809174008F70AE
:10456000806C04C0809174008F70806880937400A8
:104570000FC0809174008F70806C04C080917400B3
:104580008F70806D8093740010920202109201026D
:10459000FF91EF91BF91AF919F918F917F916F911B
:1045A0005F914F913F912F910F900BBE0F900FBED7
:1045B0000F901F901895EF92FF920F931F93DF9328
:1045C000CF93CDB7DEB728970FB6F894DEBF0FBEF6
:1045D000CDBF0E9446246091A1022091A202722FB9
:1045E0007F7044E0660F771F4A95E1F734E07595D8
:1045F00067953A95E1F73091A20232953F7020918C
:10460000A3022295207FE22EE32A2091A302F22E1C
:10461000F2942FE0F22294E0EE0CFF1C9A95E1F761
:1046200084E0F594E7948A95E1F7882777FD8095F3
:10463000982F0E94E13569837A838B839C830027BE
:10464000F7FC0095102FC801B7010E94E1356D837A
:104650007E838F83988729813A814B815C816D812C
:104660007E818F8198850E94BF26B3CF0F931F93C1
:104670008AE0809386018BE040E056EE6AEA79E4B6
:1046800004EF11E020E030E00E94731080E090E041
:104690001F910F9108959C01261B370BC9010895A6
:1046A0002FEF8A36920714F48AE69FEF9C01873930
:1046B000910514F026E930E0C9010895EF92FF92C8
:1046C0000F931F9379018A010E94AA359B01AC01C7
:1046D00080E0B9010E948D0CC801B7010E94AA3583
:1046E0009B01AC0181E0B9010E948D0C1F910F91DB
:1046F000FF90EF900895AA2797FDA095BA2FBC01CF
:10470000CD010E94E1359B01AC010E945E2308951A
:1047100080E00E94760C81E00E94760C08950F9351
:104720001F93CF93DF938C010E94882325C060E004
:1047300070E080E090E020E030E04CE852EC0E9435
:104740005E2364EF71E080E090E00E946D1B0E94A8
:10475000882360E070E08CE892EC20E030E040E0FC
:1047600050E00E945E2364EF71E080E090E00E94E0
:104770006D1B0E9488232196C017D107C4F2DF91D8
:10478000CF911F910F910895DF93CF93CDB7DEB7EF
:1047900028970FB6F894DEBF0FBECDBF29833A83AA
:1047A0004B835C836D837E838F8398876D817E814D
:1047B0008F81988529813A814B815C810E94B13437
:1047C00020E030E044E353E40E940F372BED3FE05C
:1047D00049E450E40E94083528960FB6F894DEBFED
:1047E0000FBECDBFCF91DF910895EF92FF920F934F
:1047F0001F93DF93CF93CDB7DEB728970FB6F8940A
:10480000DEBF0FBECDBF29833A834B835C836D83AC
:104810007E838F83988769817A818B819C812091A7
:10482000A3043091A4044091A5045091A6040E94D1
:104830003D349B01AC010E940F377B018C016D81DF
:104840007E818F8198852091A7043091A8044091A2
:10485000A9045091AA040E943D349B01AC010E941E
:104860000F379B01AC01C801B7010E943E340E9482
:10487000763728960FB6F894DEBF0FBECDBFCF9126
:10488000DF911F910F91FF90EF900895AF92BF922B
:10489000CF92DF92EF92FF920F931F930E945811D5
:1048A00060919A0220919B02722F7F7044E0660F04
:1048B000771F4A95E1F734E0759567953A95E1F7EA
:1048C00030919B0232953F7020919C022295207F6F
:1048D000E22EE32A20919C02F22EF2942FE0F222A3
:1048E00094E0EE0CFF1C9A95E1F784E0F594E794D0
:1048F0008A95E1F7A090CD01B090CE01C090CF0194
:10490000D090D001882777FD8095982F0E94E135BF
:10491000A60195010E940F3720E030E040E050E012
:104920000E940F376093A3047093A4048093A5049E
:104930009093A6040027F7FC0095102FC801B7013B
:104940000E94E135A60195010E940F3720E030E07A
:1049500040E050E00E940F376093A7047093A804D2
:104960008093A9049093AA0400D089E297E0EDB760
:10497000FEB7928381830E94541F0F900F901F9166
:104980000F91FF90EF90DF90CF90BF90AF90089580
:104990002F923F924F925F926F927F928F929F924F
:1049A000AF92BF92CF92DF92EF92FF920F931F933D
:1049B000DF93CF9300D000D0CDB7DEB71B012C0121
:1049C0000E94882360919D0220919E02722F7F7029
:1049D000A4E0660F771FAA95E1F7F4E07595679557
:1049E000FA95E1F7882777FD8095982F0E94E135A9
:1049F00020E030EE4FEF54E40E94083520E030E034
:104A000044E353E40E940F373B014C01C201B10162
:104A1000A40193010E94043718162CF4C201B101BD
:104A2000A401930104C0C401B301A20191010E9439
:104A30003D345B016C0100D000D000D080E197E0F4
:104A4000EDB7FEB792838183A382B482C582D682FA
:104A50000E94541F8DB79EB706960FB6F8949EBF5E
:104A60000FBE8DBF0E94C8170E94DF3569837A830D
:104A70008B839C83ADC00E94C8170E94DF350E94C3
:104A8000AA357B018C0169817A818B819C810E948E
:104A9000AA35E61AF70A92E0E916F1040CF0A3C071
:104AA000C601B5012DEC3CEC4CE85FE30E940F37EA
:104AB0000E94AA35CB01EFEF6A367E0714F48AE62E
:104AC0009FEF9C018739910514F026E930E0B90188
:104AD000882777FD8095982F0E94E1357B018C0116
:104AE000C401B30120E030E040EA50E40E943E34CB
:104AF0009B01AC01C201B1010E94043718165CF49D
:104B0000C801B7019058A80197010E945E2300D008
:104B10008BEF96E01AC0C401B30120E030E040EA18
:104B200050E40E943D349B01AC01C201B1010E94DE
:104B30000435882394F4A80197015058C801B7019F
:104B40000E945E2300D085EE96E0EDB7FEB792831B
:104B500081830E94541F0F900F900E944624609101
:104B60009D0220919E02722F7F70E4E0660F771FF6
:104B7000EA95E1F754E0759567955A95E1F788272E
:104B800077FD8095982F0E94E13520E030EE4FEFC1
:104B900054E40E94083520E030E044E353E40E94EE
:104BA0000F373B014C01C201B101A40193010E94E6
:104BB000043718162CF4C201B101A401930104C0FA
:104BC000C401B301A20191010E943D345B016C015B
:104BD000C601B50120E030E040EA50E40E9404370D
:104BE00018160CF448CF0E94882300D089EC96E078
:104BF000EDB7FEB7928381830E94541F0F900F90F0
:104C000080E090E00F900F900F900F90CF91DF9188
:104C10001F910F91FF90EF90DF90CF90BF90AF90DA
:104C20009F908F907F906F905F904F903F902F90CC
:104C30000895AF92BF92CF92DF92EF92FF920F93BF
:104C40001F937B018C010E94C8175B016C01C80196
:104C5000B70120E030E048E452E40E940F370E94A0
:104C6000AA35CB012FEF6A36720714F48AE69FEF5C
:104C70008739910514F086E990E09093AC04809315
:104C8000AB040E947B2380E00E94640C8C5B92400A
:104C900038F481E00E94640C8C5B924008F466C09A
:104CA0000E94C8177B018C01C601B5010E94DF3547
:104CB0000E94AA35E61AF70AB701882777FD809582
:104CC000982F0E94E13520E030E040EC5FE30E9445
:104CD000043788230CF44AC080E00E94640C8C5B8B
:104CE0009240C8F081E00E94640C8C5B924098F086
:104CF00085E090E00E948F238AEB9FEF0E947B2348
:104D000064EF71E080E090E00E946D1B60E070E075
:104D100084EB92E429C080E00E94640C8C5B92409A
:104D200078F08AEB9FEF0E947B2364EF71E080E0D4
:104D300090E00E946D1B60E070E084E392E414C098
:104D400081E00E94640C8C5B924080F08AEB9FEFC4
:104D50000E947B2364EF71E080E090E00E946D1B75
:104D600060E070E084E392EC0E94C8241F910F91F0
:104D7000FF90EF90DF90CF90BF90AF900895CF92CB
:104D8000DF92EF92FF920F931F93DF93CF93CDB7F4
:104D9000DEB728970FB6F894DEBF0FBECDBF2983CC
:104DA0003A834B835C836D837E838F8398870E94D5
:104DB000462400D086EA96E0EDB7FEB79283818361
:104DC0000E94541F60919D0220919E02722F7F705D
:104DD00004E0660F771F0A95E1F714E07595679573
:104DE0001A95E1F700D000D00DB71EB70F5F1F4F27
:104DF0002AE836E0EDB7FEB732832183882777FDB6
:104E00008095982F0E94E13520E030EE4FEF54E47A
:104E10000E94083520E030E044E353E40E940F375D
:104E2000F80162837383848395830E94541F8DB736
:104E30009EB706960FB6F8949EBF0FBE8DBF298110
:104E40003A814B815C816D817E818F8198850E9442
:104E5000C4237B018C0100D08CE696E0EDB7FEB751
:104E6000928381830E94541F00D000D081E596E098
:104E7000EDB7FEB792838183E382F48205831683C4
:104E80000E94541F8DB79EB706960FB6F8949EBF2A
:104E90000FBE8DBFC801B7010E94C82429813A8185
:104EA0004B815C816D817E818F8198850E94F52385
:104EB0007B018C0100D000D000D08CE396E0EDB7F0
:104EC000FEB792838183E382F482058316830E9476
:104ED000541F8DB79EB706960FB6F8949EBF0FBEAF
:104EE0008DBFB2E2CB2EB6E0DB2E1BC0C801B701EE
:104EF0000E94192600D0EDB7FEB7D282C1820E946F
:104F0000541F0F900F900E94462429813A814B81B3
:104F10005C816D817E818F8198850E94F5237B0164
:104F20008C01C801B7012DEC3CEC4CEC5DE30E9418
:104F300004371816DCF20E94882328960FB6F894DE
:104F4000DEBF0FBECDBFCF91DF911F910F91FF90BC
:104F5000EF90DF90CF9008958F929F92AF92BF9283
:104F6000CF92DF92EF92FF920F931F93DF93CF9335
:104F7000CDB7DEB7FC01009721F480E697E00E94F0
:104F80006D17408351836283738304831583268363
:104F90003783C086D186E286F386B586A486978657
:104FA000868680E090E0A0E0B0E0848B958BA68BB5
:104FB000B78B108E11A2CF91DF911F910F91FF90AF
:104FC000EF90DF90CF90BF90AF909F908F9008951B
:104FD0002F923F924F925F926F927F928F929F9209
:104FE000AF92BF92CF92DF92EF92FF920F931F93F7
:104FF000CF93DF93EC011A012B01688979898A89A3
:105000009B89A20191010E943D343B014C01288102
:1050100039814A815B810E940F377B018C01888D29
:10502000882359F40F2EF0E06F2EF0E07F2EF0E091
:105030008F2EF0E09F2EF02D52C00E94C8172D8DAC
:105040003E8D4F8D58A1621B730B840B950B0E94F4
:10505000DF352FE632E143E85AE30E940F375B0168
:105060006C01A40193010E940F372C893D894E8960
:105070005F890E943E343B014C012C813D814E8171
:105080005F810E940F379B01AC01C801B7010E94EC
:105090003E347B018C01C601B50120E030E040E0E8
:1050A00050E00E9404358823D1F0C201B101298D5E
:1050B0003A8D4B8D5C8D0E943D34288539854A851B
:1050C0005B850E940F37A60195010E9408359B0160
:1050D000AC01C801B7010E943E347B018C0181E024
:1050E000888F6C8A7D8A8E8A9F8A298E3A8E4B8E13
:1050F0005C8E0E94C8176D8F7E8F8F8F98A3EE8570
:10510000FF85309719F0C801B7010995B701C801AB
:10511000DF91CF911F910F91FF90EF90DF90CF9093
:10512000BF90AF909F908F907F906F905F904F90C7
:105130003F902F900895CF93DF93EC0189A18823AE
:1051400019F487E497E006C0EC85FD85309721F4DB
:1051500082E397E00E946D170995AB01BC01CE0177
:105160000E94E827DF91CF910895CF93DF93EC0160
:10517000CE010E949B28FCCF9093B8048093B70483
:105180007093BA046093B90408950E94C60CBC01E0
:105190008091B7049091B8040E94F9378091B904C6
:1051A0009091BA04681B790BCB010895089580E0B3
:1051B0000895AF92BF92CF92DF92EF92FF920F933A
:1051C0001F936C01FC01A080B180FFE3BF22C501E9
:1051D0006AE270E00E940D38F62EEE2400E010E046
:1051E000C801B7010E94E108C5016AE270E00E94AF
:1051F0000D38A0E0B0E0BC01CD01A60126E030E012
:105200000E94E407C801B7010E94500880E01F9186
:105210000F91FF90EF90DF90CF90BF90AF900895E7
:10522000EF92FF920F931F93FC017B016AE270E003
:105230000E94F937162F00E0CF016AE270E00E9469
:10524000F937080F191F20E030E0C901B8010E94AA
:105250009C0786E090E0B7010E944D070E94D308AA
:1052600080E01F910F91FF90EF900895EF92FF92D1
:105270000F931F93DF93CF9300D000D000D0CDB712
:10528000DEB78B017E010894E11CF11CB7010E947E
:1052900010298A81829586958695837011F081E028
:1052A0000BC0C801A0E0B0E08B839C83AD83BE83BC
:1052B000C7010E94D92880E026960FB6F894DEBF79
:1052C0000FBECDBFCF91DF911F910F91FF90EF9057
:1052D00008950F931F93DF93CF9300D000D000D099
:1052E000CDB7DEB78B01BE016F5F7F4F0E941029E3
:1052F0008A81829586958695837011F081E006C03B
:105300008B819C81F8019183808380E026960FB683
:10531000F894DEBF0FBECDBFCF91DF911F910F91EB
:1053200008950895EF920F93582F662311F480E0AB
:1053300001C082E0411144E0222311F430E001C0B9
:1053400038E0002311F420E001C020E1EE2011F448
:1053500090E001C090E2852B842B832B822B892B3C
:105360000F91EF9008950F931F93CF93DF93C0E0B9
:10537000D0E0082F10E0C8010C2E02C0959587954B
:105380000A94E2F780FF03C08C2F0E94760C2196CE
:10539000C630D10581F7DF91CF911F910F9108950C
:1053A000EF92FF920F931F93CF93DF937B01C0E0A7
:1053B000D0E0082F10E0C8010C2E02C0959587950B
:1053C0000A94E2F780FF04C08C2FB7010E948D0C75
:1053D0002196C630D10579F7DF91CF911F910F91BA
:1053E000FF90EF9008950F931F938C01CB01BA01AA
:1053F0000E94E135F801608F718F828F938F1F912A
:105400000F910895861B970B9C0140E050E081505E
:10541000904820F02050304041405040B901CA012E
:105420000895FF920F931F938C01FF24FC01608D60
:10543000718D828D938D0E94AA35F8012081318172
:1054400042815381261737074807590711F4FF2473
:10545000F3948F2D1F910F91FF900895DF92EF929B
:10546000FF920F931F93CF93DF93EC018C810E94E7
:10547000A90D2D813E81821B930B9C0140E050E0E1
:105480008150904820F02050304041405040688189
:1054900079818A819B81620F731F841F951F6883A6
:1054A00079838A839B8328960E94E135AB01BC01F6
:1054B000CE0128970E94E8277B018C01DF8020E045
:1054C00030E04FE753E40E94043718161CF46FEFE6
:1054D00070E011C0C801B70120E030E04FE753ECA5
:1054E0000E94043588231CF461E07FEF04C0C801EA
:1054F000B7010E94AA358D2D0E94D029DF91CF914E
:105500001F910F91FF90EF90DF9008952F923F929F
:105510004F925F926F927F928F929F92AF92BF92C3
:10552000CF92DF92EF92FF920F931F93DF93CF936F
:105530000F92CDB7DEB73C016983842F1801290192
:10554000F301108211821282138244830E94A90DFA
:10555000F3019683858389818783C3010896B2010D
:10556000A1019701860175016401AA24BB24882446
:1055700099240E94AC2781E0F30181A70F90CF917D
:10558000DF911F910F91FF90EF90DF90CF90BF9030
:10559000AF909F908F907F906F905F904F903F90D3
:1055A0002F900895A1E1B0E0E8EDFAE20C945D38A7
:1055B0003C017F876E876A01FC0117821682838116
:1055C00081FD03C06FEF7FEF71C39E012F5F3F4FDF
:1055D000398B288BF3012381EE85FF8523FD85918F
:1055E00023FF8191FF87EE87882309F45CC385320E
:1055F00051F4EE85FF8523FD859123FF8191FF877F
:10560000EE87853229F490E0B3010E949530E2CF15
:10561000982F10E0882499241032B0F49B3269F05E
:105620009C3228F4903251F0933271F40BC09D32C9
:1056300039F0903349F4116028C01260146025C01D
:10564000186023C0106121C017FD2AC0892F805324
:105650008A3078F416FF06C0FAE09F9E902C112441
:10566000980E13C03AE0839E802C1124880E10629D
:105670000CC09E3221F416FD16C3106406C09C3681
:1056800011F4106802C0983659F4EE85FF8523FDA9
:10569000959123FF9191FF87EE87992309F0BCCF65
:1056A000892F8554833020F4812F8061905E07C05C
:1056B000892F8556833008F0A1C1812F8F7E86FD0A
:1056C00002C076E0972E6FE3F62EF822953619F495
:1056D000F0E4FF2A07C0963619F420E8F22A02C047
:1056E00091109A94F7FE0BC03BE3391520F427E0A4
:1056F0005CE3B52E0EC0B92CB39427E00AC047E096
:10570000491528F427E0BB2447E0942E02C0292D38
:10571000BB24C60104969D878C87F6016081718148
:1057200082819381AE014F5F5F4F0B2D0E945D2FF1
:105730006C010981202E332400FF04C003FD02C048
:105740001DE209C0F1FE02C01BE205C0F2FC02C06E
:1057500010E001C010E2C1018C709070892BB9F18A
:10576000112311F483E001C084E0881510F088242F
:105770000AC0881AF3FC07C080E290E0B3010E94DF
:1057800095308A94C9F7112329F0812F90E0B30155
:105790000E94953023FE03C003E717E00EC007E721
:1057A00017E00BC0E114F10409F0805290E0B3015E
:1057B0000E9495300F5F1F4F05C0EF2CFF24F0E1D2
:1057C000EF22FF24F8018491882361F714C1F7FECA
:1057D00012C0BC0C24FE04C08A81813309F4BA943F
:1057E0001B141CF0BB24B3942DC0F8E0FB1550F53E
:1057F00038E0B32E27C0F6FC25C0892D90E08C152B
:105800009D054CF02CEFC2162FEFD20624F030E8A5
:10581000F32A01C09A94992049F0E2E0F0E0EC0FFD
:10582000FD1FE90DF11D80818033A1F3F7FE0AC051
:10583000B92CB394892D90E0C816D90614F0992498
:1058400001C09C18F7FC03C025E030E009C01C141F
:105850001D041CF021E030E003C096012F5F3F4F94
:10586000112311F02F5F3F4F992029F0892D90E0EF
:105870000196280F391F882D90E02817390714F05A
:10588000882401C0821A4F2C5524C201897090705F
:10589000892B39F008C080E290E0B3010E94953076
:1058A0008A948820C1F7112329F0812F90E0B30159
:1058B0000E94953043FE07C008C080E390E0B3012A
:1058C0000E9495308A948820C1F7F7FE46C0860171
:1058D000D7FE02C000E010E076010894E11CF11C44
:1058E000E01AF10A41E050E04C0F5D1FE40EF51E96
:1058F00026014B185108892D90E0AA24BB24A81A30
:10590000B90A5FEF0F3F150729F48EE290E0B3016B
:105910000E949530C016D10634F0401651061CF492
:10592000F701808101C080E3015010400894E11C20
:10593000F11C0A151B052CF090E0B3010E94953074
:10594000E0CF0C151D0539F49A81963318F4953380
:1059500011F424FE81E390E04BC08A81813309F089
:105960000F7E90E0B3010E9495309920A1F08EE265
:1059700090E0B3010E94953012E0E1E0F0E0EC0F1E
:10598000FD1FE10FF11D1F5F808190E0B3010E94B8
:1059900095309A9491F744FC03C085E690E002C0EC
:1059A00085E490E0B3010E949530D7FC05C0C11496
:1059B000D10441F404FF06C0D094C194D108D3941B
:1059C0008DE201C08BE290E0B3010E94953080E34C
:1059D00005C08F5F26EF3FEFC20ED31E3AE0C3161D
:1059E000D104BCF790E0B3010E949530C601C09687
:1059F000B3010E949530CC84DD8452C1933631F0DE
:105A0000933799F0933509F059C023C0F60180818E
:105A100089835E010894A11CB11C22E030E0C20E13
:105A2000D31E21E0E22EF12C12C0F601A080B1803D
:105A300016FD03C06FEF7FEF02C0692D70E022E01A
:105A400030E0C20ED31EC5010E948A307C011F7750
:105A500013C0F601A080B18016FD03C06FEF7FEF89
:105A600002C0692D70E022E030E0C20ED31EC501F5
:105A70000E9476307C01106813FF07C01BC080E2D3
:105A800090E0B3010E9495308A94882D90E0E8164A
:105A9000F906A8F30FC0F50117FD859117FF819155
:105AA0005F0190E0B3010E94953081108A940894C0
:105AB000E108F108E114F10471F7F2C0943611F035
:105AC000993689F517FF08C0F6012081318142819E
:105AD000538184E090E00AC0F601808191819C01AD
